{
  "transactions": [
    {
      "hash": "0xeeb8feba9ce2a951095f3d56e6fdf8f08686e09f35ff0fce8926d2dd1cb70d35",
      "transactionType": "CALL",
      "contractName": null,
      "contractAddress": "0x20e8307cfe2c5cf7e434b5cb2c92494fa4baf01c",
      "function": "mint(address,uint256)",
      "arguments": [
        "0x9bcf302cFCB64406b557342c2715e85Ac62A4693",
        "1000000000"
      ],
      "transaction": {
        "from": "0x9bcf302cfcb64406b557342c2715e85ac62a4693",
        "to": "0x20e8307cfe2c5cf7e434b5cb2c92494fa4baf01c",
        "gas": "0xb86a",
        "value": "0x0",
        "input": "0x40c10f190000000000000000000000009bcf302cfcb64406b557342c2715e85ac62a4693000000000000000000000000000000000000000000000000000000003b9aca00",
        "nonce": "0x28",
        "chainId": "0x515"
      },
      "additionalContracts": [],
      "isFixedGasLimit": false
    },
    {
      "hash": "0xcf8a5ffa2da2d9e9d2850de2a61802dab51b05cf2ac014baf9689c9b61a96ffa",
      "transactionType": "CALL",
      "contractName": null,
      "contractAddress": "0x20e8307cfe2c5cf7e434b5cb2c92494fa4baf01c",
      "function": "approve(address,uint256)",
      "arguments": [
        "0xd48ee69b1206c3fdD17E5668A2725E10c2B0f11D",
        "115792089237316195423570985008687907853269984665640564039457584007913129639935"
      ],
      "transaction": {
        "from": "0x9bcf302cfcb64406b557342c2715e85ac62a4693",
        "to": "0x20e8307cfe2c5cf7e434b5cb2c92494fa4baf01c",
        "gas": "0x98fb",
        "value": "0x0",
        "input": "0x095ea7b3000000000000000000000000d48ee69b1206c3fdd17e5668a2725e10c2b0f11dffffffffffffffffffffffffffffffffffffffffffffffffffffffffffffffff",
        "nonce": "0x29",
        "chainId": "0x515"
      },
      "additionalContracts": [],
      "isFixedGasLimit": false
    },
    {
      "hash": "0x024fb8f71b6ca550fa179a5283579e9c817006e0f60dbec74f7ab82b02223a8f",
      "transactionType": "CALL",
      "contractName": null,
      "contractAddress": "0xd48ee69b1206c3fdd17e5668a2725e10c2b0f11d",
      "function": "swap((address,address,uint24,int24,address),(bool,int256,uint160),(bool,bool),bytes)",
      "arguments": [
        "(0x20E8307cFe2C5CF7E434b5Cb2C92494fa4BAF01C, 0x7d1dea64e891dccb20f85bC379227238c8C1308b, 3000, 60, 0xCB611482dC1112f768B965d655d83b1DbcF420c8)",
        "(true, -10000000, 4295128740)",
        "(false, false)",
        "0x"
      ],
      "transaction": {
        "from": "0x9bcf302cfcb64406b557342c2715e85ac62a4693",
        "to": "0xd48ee69b1206c3fdd17e5668a2725e10c2b0f11d",
        "gas": "0x37340",
        "value": "0x0",
        "input": "0x2229d0b400000000000000000000000020e8307cfe2c5cf7e434b5cb2c92494fa4baf01c0000000000000000000000007d1dea64e891dccb20f85bc379227238c8c1308b0000000000000000000000000000000000000000000000000000000000000bb8000000000000000000000000000000000000000000000000000000000000003c000000000000000000000000cb611482dc1112f768b965d655d83b1dbcf420c80000000000000000000000000000000000000000000000000000000000000001ffffffffffffffffffffffffffffffffffffffffffffffffffffffffff67698000000000000000000000000000000000000000000000000000000001000276a40000000000000000000000000000000000000000000000000000000000000000000000000000000000000000000000000000000000000000000000000000000000000000000000000000000000000000000000000000000000000000000001600000000000000000000000000000000000000000000000000000000000000000",
        "nonce": "0x2a",
        "chainId": "0x515"
      },
      "additionalContracts": [],
      "isFixedGasLimit": false
    }
  ],
  "receipts": [
    {
      "status": "0x1",
      "cumulativeGasUsed": "0x2ff7c",
      "logs": [
        {
          "address": "0x20e8307cfe2c5cf7e434b5cb2c92494fa4baf01c",
          "topics": [
            "0xddf252ad1be2c89b69c2b068fc378daa952ba7f163c4a11628f55a4df523b3ef",
            "0x0000000000000000000000000000000000000000000000000000000000000000",
            "0x0000000000000000000000009bcf302cfcb64406b557342c2715e85ac62a4693"
          ],
          "data": "0x000000000000000000000000000000000000000000000000000000003b9aca00",
          "blockHash": "0x0000000000000000000000000000000000000000000000000000000000000000",
          "blockNumber": "0x2c4c6d1",
          "blockTimestamp": "0x69b2741d",
          "transactionHash": "0xeeb8feba9ce2a951095f3d56e6fdf8f08686e09f35ff0fce8926d2dd1cb70d35",
          "transactionIndex": "0x3",
          "logIndex": "0x1",
          "removed": false
        }
      ],
      "logsBloom": "0x00000000000000000000000000000000000000800000000000000000000000000000000000000000000000000000000000000000000000000000000000000000000020000000002000000008000000000000000000000000000000000000000000000000020000000000000000000800000000000000000000000010000000000000000000000000000000000000000000000000000000000000000000000000000000000000000000000000000000000000000000000040000000000000000000000002000000000000000000000000000000000000000000000000000020000000000000001000000000000000000000000000000000000000000000000080",
      "type": "0x2",
      "transactionHash": "0xeeb8feba9ce2a951095f3d56e6fdf8f08686e09f35ff0fce8926d2dd1cb70d35",
      "transactionIndex": "0x3",
      "blockHash": "0x0000000000000000000000000000000000000000000000000000000000000000",
      "blockNumber": "0x2c4c6d1",
      "gasUsed": "0x8584",
      "effectiveGasPrice": "0x7a121",
      "blobGasUsed": "0x9c40",
      "from": "0x9bcf302cfcb64406b557342c2715e85ac62a4693",
      "to": "0x20e8307cfe2c5cf7e434b5cb2c92494fa4baf01c",
      "contractAddress": null,
      "daFootprintGasScalar": "0x190",
      "l1BaseFeeScalar": "0x7d0",
      "l1BlobBaseFee": "0x1",
      "l1BlobBaseFeeScalar": "0xdbba0",
      "l1Fee": "0xc4",
      "l1GasPrice": "0x10",
      "l1GasUsed": "0x640"
    },
    {
      "status": "0x1",
      "cumulativeGasUsed": "0x36817",
      "logs": [
        {
          "address": "0x20e8307cfe2c5cf7e434b5cb2c92494fa4baf01c",
          "topics": [
            "0x8c5be1e5ebec7d5bd14f71427d1e84f3dd0314c0f7b2291e5b200ac8c7c3b925",
            "0x0000000000000000000000009bcf302cfcb64406b557342c2715e85ac62a4693",
            "0x000000000000000000000000d48ee69b1206c3fdd17e5668a2725e10c2b0f11d"
          ],
          "data": "0xffffffffffffffffffffffffffffffffffffffffffffffffffffffffffffffff",
          "blockHash": "0x0000000000000000000000000000000000000000000000000000000000000000",
          "blockNumber": "0x2c4c6d1",
          "blockTimestamp": "0x69b2741d",
          "transactionHash": "0xcf8a5ffa2da2d9e9d2850de2a61802dab51b05cf2ac014baf9689c9b61a96ffa",
          "transactionIndex": "0x4",
          "logIndex": "0x2",
          "removed": false
        }
      ],
      "logsBloom": "0x00000000000000000000000000000000000000800000000000000000000000000000000000000000000000000000000000000000000000000000000000200800000020000000002000000000000000000000000000000000000000000000000200000000000000000000000000000000000000000000000000000000000000000000000000000000000000000000000000000000000000000000000000000000020000000000000000000000000000000000000000000040000000000000000000000000000000000000000000000000000000000000080000000000000000000010000000001000000000000000000000000000000000000000000000000080",
      "type": "0x2",
      "transactionHash": "0xcf8a5ffa2da2d9e9d2850de2a61802dab51b05cf2ac014baf9689c9b61a96ffa",
      "transactionIndex": "0x4",
      "blockHash": "0x0000000000000000000000000000000000000000000000000000000000000000",
      "blockNumber": "0x2c4c6d1",
      "gasUsed": "0x689b",
      "effectiveGasPrice": "0x7a121",
      "blobGasUsed": "0x9c40",
      "from": "0x9bcf302cfcb64406b557342c2715e85ac62a4693",
      "to": "0x20e8307cfe2c5cf7e434b5cb2c92494fa4baf01c",
      "contractAddress": null,
      "daFootprintGasScalar": "0x190",
      "l1BaseFeeScalar": "0x7d0",
      "l1BlobBaseFee": "0x1",
      "l1BlobBaseFeeScalar": "0xdbba0",
      "l1Fee": "0xc4",
      "l1GasPrice": "0x10",
      "l1GasUsed": "0x640"
    },
    {
      "status": "0x1",
      "cumulativeGasUsed": "0x8c7e5",
      "logs": [
        {
          "address": "0x7c13d90950f542b297179e09f3a36eaa917a40c1",
          "topics": [
            "0x40e9cecb9f5f1f1c5b9c97dec2917b7ee92e57ba5563708daca94dd84ad7112f",
            "0x95c7854a55b159e9d9cccafea079519fcaca1094e74865f9801237a89904a8ad",
            "0x000000000000000000000000d48ee69b1206c3fdd17e5668a2725e10c2b0f11d"
          ],
          "data": "0xffffffffffffffffffffffffffffffffffffffffffffffffffffffffff676980000000000000000000000000000000000000000000000000000000000098214f0000000000000000000000000000000000000000fffffe53cab39ead6f8b7f3c00000000000000000000000000000000000000000000000000005af3107a4000ffffffffffffffffffffffffffffffffffffffffffffffffffffffffffffffff0000000000000000000000000000000000000000000000000000000000000bb8",
          "blockHash": "0x0000000000000000000000000000000000000000000000000000000000000000",
          "blockNumber": "0x2c4c6d1",
          "blockTimestamp": "0x69b2741d",
          "transactionHash": "0x024fb8f71b6ca550fa179a5283579e9c817006e0f60dbec74f7ab82b02223a8f",
          "transactionIndex": "0x7",
          "logIndex": "0x5",
          "removed": false
        },
        {
          "address": "0xcb611482dc1112f768b965d655d83b1dbcf420c8",
          "topics": [
            "0x810dcfc44c4694d5377de55216dfd82b04ee75b7a12e6999b06e2423292494c8",
            "0x95c7854a55b159e9d9cccafea079519fcaca1094e74865f9801237a89904a8ad",
            "0x000000000000000000000000d48ee69b1206c3fdd17e5668a2725e10c2b0f11d"
          ],
          "data": "0xffffffffffffffffffffffffffffffffffffffffffffffffffffffffff676980000000000000000000000000000000000000000000000000000000000098214f",
          "blockHash": "0x0000000000000000000000000000000000000000000000000000000000000000",
          "blockNumber": "0x2c4c6d1",
          "blockTimestamp": "0x69b2741d",
          "transactionHash": "0x024fb8f71b6ca550fa179a5283579e9c817006e0f60dbec74f7ab82b02223a8f",
          "transactionIndex": "0x7",
          "logIndex": "0x6",
          "removed": false
        },
        {
          "address": "0x20e8307cfe2c5cf7e434b5cb2c92494fa4baf01c",
          "topics": [
            "0xddf252ad1be2c89b69c2b068fc378daa952ba7f163c4a11628f55a4df523b3ef",
            "0x0000000000000000000000009bcf302cfcb64406b557342c2715e85ac62a4693",
            "0x0000000000000000000000007c13d90950f542b297179e09f3a36eaa917a40c1"
          ],
          "data": "0x0000000000000000000000000000000000000000000000000000000000989680",
          "blockHash": "0x0000000000000000000000000000000000000000000000000000000000000000",
          "blockNumber": "0x2c4c6d1",
          "blockTimestamp": "0x69b2741d",
          "transactionHash": "0x024fb8f71b6ca550fa179a5283579e9c817006e0f60dbec74f7ab82b02223a8f",
          "transactionIndex": "0x7",
          "logIndex": "0x7",
          "removed": false
        },
        {
          "address": "0x7d1dea64e891dccb20f85bc379227238c8c1308b",
          "topics": [
            "0xddf252ad1be2c89b69c2b068fc378daa952ba7f163c4a11628f55a4df523b3ef",
            "0x0000000000000000000000007c13d90950f542b297179e09f3a36eaa917a40c1",
            "0x0000000000000000000000009bcf302cfcb64406b557342c2715e85ac62a4693"
          ],
          "data": "0x000000000000000000000000000000000000000000000000000000000098214f",
          "blockHash": "0x0000000000000000000000000000000000000000000000000000000000000000",
          "blockNumber": "0x2c4c6d1",
          "blockTimestamp": "0x69b2741d",
          "transactionHash": "0x024fb8f71b6ca550fa179a5283579e9c817006e0f60dbec74f7ab82b02223a8f",
          "transactionIndex": "0x7",
          "logIndex": "0x8",
          "removed": false
        }
      ],
      "logsBloom": "0x04000000000000000000000000000000000000800000000000000200000000001000000000000000000000000000000000004000048000000000000000000800000020000000002000000008000000000000000000000020000000000000000200000000400000000000000000000000000000000000000002000010000000000000000000000000000000000000080000000000000000000000000000000400000000000000000000000000000000000000000002000044000000000010000000000002000000000000000080000000000000000000080200000002000000040000000000001080004000000000000000000000000000000000000000000080",
      "type": "0x2",
      "transactionHash": "0x024fb8f71b6ca550fa179a5283579e9c817006e0f60dbec74f7ab82b02223a8f",
      "transactionIndex": "0x7",
      "blockHash": "0x0000000000000000000000000000000000000000000000000000000000000000",
      "blockNumber": "0x2c4c6d1",
      "gasUsed": "0x27f76",
      "effectiveGasPrice": "0x7a121",
      "blobGasUsed": "0xfeb0",
      "from": "0x9bcf302cfcb64406b557342c2715e85ac62a4693",
      "to": "0xd48ee69b1206c3fdd17e5668a2725e10c2b0f11d",
      "contractAddress": null,
      "daFootprintGasScalar": "0x190",
      "l1BaseFeeScalar": "0x7d0",
      "l1BlobBaseFee": "0x1",
      "l1BlobBaseFeeScalar": "0xdbba0",
      "l1Fee": "0xc4",
      "l1GasPrice": "0x10",
      "l1GasUsed": "0xa33"
    }
  ],
  "libraries": [],
  "pending": [],
  "returns": {},
  "timestamp": 1773302813,
  "chain": 1301,
  "commit": "0223438"
}