{
  "transactions": [
    {
      "hash": "0xd076f3224d86417733f0a4105cf8259475b81c3bc4809f4929746a83b0f4ef01",
      "transactionType": "CALL",
      "contractName": null,
      "contractAddress": "0x7c13d90950f542b297179e09f3a36eaa917a40c1",
      "function": "initialize((address,address,uint24,int24,address),uint160)",
      "arguments": [
        "(0x20E8307cFe2C5CF7E434b5Cb2C92494fa4BAF01C, 0x7d1dea64e891dccb20f85bC379227238c8C1308b, 3000, 60, 0xCB611482dC1112f768B965d655d83b1DbcF420c8)",
        "79228162514264337593543950336"
      ],
      "transaction": {
        "from": "0x9bcf302cfcb64406b557342c2715e85ac62a4693",
        "to": "0x7c13d90950f542b297179e09f3a36eaa917a40c1",
        "value": "0x0",
        "input": "0x6276cbbe00000000000000000000000020e8307cfe2c5cf7e434b5cb2c92494fa4baf01c0000000000000000000000007d1dea64e891dccb20f85bc379227238c8c1308b0000000000000000000000000000000000000000000000000000000000000bb8000000000000000000000000000000000000000000000000000000000000003c000000000000000000000000cb611482dc1112f768b965d655d83b1dbcf420c80000000000000000000000000000000000000001000000000000000000000000",
        "nonce": "0x1f",
        "chainId": "0x515"
      },
      "additionalContracts": [],
      "isFixedGasLimit": false
    },
    {
      "hash": "0xf3dfea1f38892c23e7a87fe1f3defaa0f30c951055499f703e2a296fdf3050d1",
      "transactionType": "CALL",
      "contractName": null,
      "contractAddress": "0x20e8307cfe2c5cf7e434b5cb2c92494fa4baf01c",
      "function": "mint(address,uint256)",
      "arguments": [
        "0x9bcf302cFCB64406b557342c2715e85Ac62A4693",
        "1000000000000000"
      ],
      "transaction": {
        "from": "0x9bcf302cfcb64406b557342c2715e85ac62a4693",
        "to": "0x20e8307cfe2c5cf7e434b5cb2c92494fa4baf01c",
        "value": "0x0",
        "input": "0x40c10f190000000000000000000000009bcf302cfcb64406b557342c2715e85ac62a469300000000000000000000000000000000000000000000000000038d7ea4c68000",
        "nonce": "0x20",
        "chainId": "0x515"
      },
      "additionalContracts": [],
      "isFixedGasLimit": false
    },
    {
      "hash": "0x7755c8680235440d8ed6d0cd767e9dff7246b182817db486e24eb39cf4dc5094",
      "transactionType": "CALL",
      "contractName": null,
      "contractAddress": "0x7d1dea64e891dccb20f85bc379227238c8c1308b",
      "function": "mint(address,uint256)",
      "arguments": [
        "0x9bcf302cFCB64406b557342c2715e85Ac62A4693",
        "1000000000000000000000000000"
      ],
      "transaction": {
        "from": "0x9bcf302cfcb64406b557342c2715e85ac62a4693",
        "to": "0x7d1dea64e891dccb20f85bc379227238c8c1308b",
        "value": "0x0",
        "input": "0x40c10f190000000000000000000000009bcf302cfcb64406b557342c2715e85ac62a46930000000000000000000000000000000000000000033b2e3c9fd0803ce8000000",
        "nonce": "0x21",
        "chainId": "0x515"
      },
      "additionalContracts": [],
      "isFixedGasLimit": false
    },
    {
      "hash": "0xfb1f36d5e901e1840c6ee1d0414dbfe5e07f5aa5e25f3eae038228d35351f185",
      "transactionType": "CALL",
      "contractName": null,
      "contractAddress": "0x20e8307cfe2c5cf7e434b5cb2c92494fa4baf01c",
      "function": "approve(address,uint256)",
      "arguments": [
        "0xbA7C987537E1F7872bc4E7f856921CFe10389c20",
        "115792089237316195423570985008687907853269984665640564039457584007913129639935"
      ],
      "transaction": {
        "from": "0x9bcf302cfcb64406b557342c2715e85ac62a4693",
        "to": "0x20e8307cfe2c5cf7e434b5cb2c92494fa4baf01c",
        "value": "0x0",
        "input": "0x095ea7b3000000000000000000000000ba7c987537e1f7872bc4e7f856921cfe10389c20ffffffffffffffffffffffffffffffffffffffffffffffffffffffffffffffff",
        "nonce": "0x22",
        "chainId": "0x515"
      },
      "additionalContracts": [],
      "isFixedGasLimit": false
    },
    {
      "hash": "0xbe67f7fc274b3bd0bb6b43b7f7c8e1b13c56ac642f2d73f21d379e304e45fd33",
      "transactionType": "CALL",
      "contractName": null,
      "contractAddress": "0x7d1dea64e891dccb20f85bc379227238c8c1308b",
      "function": "approve(address,uint256)",
      "arguments": [
        "0xbA7C987537E1F7872bc4E7f856921CFe10389c20",
        "115792089237316195423570985008687907853269984665640564039457584007913129639935"
      ],
      "transaction": {
        "from": "0x9bcf302cfcb64406b557342c2715e85ac62a4693",
        "to": "0x7d1dea64e891dccb20f85bc379227238c8c1308b",
        "value": "0x0",
        "input": "0x095ea7b3000000000000000000000000ba7c987537e1f7872bc4e7f856921cfe10389c20ffffffffffffffffffffffffffffffffffffffffffffffffffffffffffffffff",
        "nonce": "0x23",
        "chainId": "0x515"
      },
      "additionalContracts": [],
      "isFixedGasLimit": false
    },
    {
      "hash": "0xf7c101177518862b70f489ab15c600b1801338bddfbb4c1c41159105dfbe18b2",
      "transactionType": "CALL",
      "contractName": null,
      "contractAddress": "0xba7c987537e1f7872bc4e7f856921cfe10389c20",
      "function": "modifyLiquidity((address,address,uint24,int24,address),(int24,int24,int256,bytes32),bytes)",
      "arguments": [
        "(0x20E8307cFe2C5CF7E434b5Cb2C92494fa4BAF01C, 0x7d1dea64e891dccb20f85bC379227238c8C1308b, 3000, 60, 0xCB611482dC1112f768B965d655d83b1DbcF420c8)",
        "(-887220, 887220, 100000000000000, 0x0000000000000000000000000000000000000000000000000000000000000000)",
        "0x"
      ],
      "transaction": {
        "from": "0x9bcf302cfcb64406b557342c2715e85ac62a4693",
        "to": "0xba7c987537e1f7872bc4e7f856921cfe10389c20",
        "value": "0x0",
        "input": "0x5a6bcfda00000000000000000000000020e8307cfe2c5cf7e434b5cb2c92494fa4baf01c0000000000000000000000007d1dea64e891dccb20f85bc379227238c8c1308b0000000000000000000000000000000000000000000000000000000000000bb8000000000000000000000000000000000000000000000000000000000000003c000000000000000000000000cb611482dc1112f768b965d655d83b1dbcf420c8fffffffffffffffffffffffffffffffffffffffffffffffffffffffffff2764c00000000000000000000000000000000000000000000000000000000000d89b400000000000000000000000000000000000000000000000000005af3107a4000000000000000000000000000000000000000000000000000000000000000000000000000000000000000000000000000000000000000000000000000000001400000000000000000000000000000000000000000000000000000000000000000",
        "nonce": "0x24",
        "chainId": "0x515"
      },
      "additionalContracts": [],
      "isFixedGasLimit": false
    },
    {
      "hash": "0xb47df2fdb3f98f9532a57c322d465cd456dd9c4df3af40f1083739c3f329cb7c",
      "transactionType": "CALL",
      "contractName": null,
      "contractAddress": "0xe8cf0ace4a7f5b940c3cab327117045c03b79ac3",
      "function": "setPoolConfig(bytes32,(uint256,uint256,uint256,bool))",
      "arguments": [
        "0x95c7854a55b159e9d9cccafea079519fcaca1094e74865f9801237a89904a8ad",
        "(10000000000000000000, 300, 500, true)"
      ],
      "transaction": {
        "from": "0x9bcf302cfcb64406b557342c2715e85ac62a4693",
        "to": "0xe8cf0ace4a7f5b940c3cab327117045c03b79ac3",
        "value": "0x0",
        "input": "0x5325972d95c7854a55b159e9d9cccafea079519fcaca1094e74865f9801237a89904a8ad0000000000000000000000000000000000000000000000008ac7230489e80000000000000000000000000000000000000000000000000000000000000000012c00000000000000000000000000000000000000000000000000000000000001f40000000000000000000000000000000000000000000000000000000000000001",
        "nonce": "0x25",
        "chainId": "0x515"
      },
      "additionalContracts": [],
      "isFixedGasLimit": false
    }
  ],
  "receipts": [
    {
      "status": "0x1",
      "cumulativeGasUsed": "0x93bdc",
      "logs": [
        {
          "address": "0xcb611482dc1112f768b965d655d83b1dbcf420c8",
          "topics": [
            "0xe4c5c61c09aa451db9aa36c6f882a19e93473d68d2cc6ce5e6f5eede02d9d3b5",
            "0x95c7854a55b159e9d9cccafea079519fcaca1094e74865f9801237a89904a8ad"
          ],
          "data": "0x00000000000000000000000020e8307cfe2c5cf7e434b5cb2c92494fa4baf01c0000000000000000000000007d1dea64e891dccb20f85bc379227238c8c1308b0000000000000000000000000000000000000000000000000000000000000bb8",
          "blockHash": "0xfd35b1244ac9282a4da4aab19f03152c089ade684ba68816a136ff3420f4e636",
          "blockNumber": "0x2c40c44",
          "blockTimestamp": "0x69b1b990",
          "transactionHash": "0xd076f3224d86417733f0a4105cf8259475b81c3bc4809f4929746a83b0f4ef01",
          "transactionIndex": "0x7",
          "logIndex": "0x5",
          "removed": false
        },
        {
          "address": "0x7c13d90950f542b297179e09f3a36eaa917a40c1",
          "topics": [
            "0xdd466e674ea557f56295e2d0218a125ea4b4f0f6f3307b95f85e6110838d6438",
            "0x95c7854a55b159e9d9cccafea079519fcaca1094e74865f9801237a89904a8ad",
            "0x00000000000000000000000020e8307cfe2c5cf7e434b5cb2c92494fa4baf01c",
            "0x0000000000000000000000007d1dea64e891dccb20f85bc379227238c8c1308b"
          ],
          "data": "0x0000000000000000000000000000000000000000000000000000000000000bb8000000000000000000000000000000000000000000000000000000000000003c000000000000000000000000cb611482dc1112f768b965d655d83b1dbcf420c800000000000000000000000000000000000000010000000000000000000000000000000000000000000000000000000000000000000000000000000000000000",
          "blockHash": "0xfd35b1244ac9282a4da4aab19f03152c089ade684ba68816a136ff3420f4e636",
          "blockNumber": "0x2c40c44",
          "blockTimestamp": "0x69b1b990",
          "transactionHash": "0xd076f3224d86417733f0a4105cf8259475b81c3bc4809f4929746a83b0f4ef01",
          "transactionIndex": "0x7",
          "logIndex": "0x6",
          "removed": false
        }
      ],
      "logsBloom": "0x00000000000000000000000000000000000000000000000000000200000000000000000000000000000000000000400000004000000000000000000000000000008020000000000000000010000000000000000000000040000000000000000000000000400000000000000000000000000000000000000002000000000001000000000000000008000000000000000000000001000000000000000000200400000000000000000000000000000000000000000022000000000000000000000000000000000000000000000080000000000000000001000200000000000000000000000000000080000000080000000000000000000000000000000000000000",
      "type": "0x2",
      "transactionHash": "0xd076f3224d86417733f0a4105cf8259475b81c3bc4809f4929746a83b0f4ef01",
      "transactionIndex": "0x7",
      "blockHash": "0xfd35b1244ac9282a4da4aab19f03152c089ade684ba68816a136ff3420f4e636",
      "blockNumber": "0x2c40c44",
      "gasUsed": "0xeb48",
      "effectiveGasPrice": "0x7a121",
      "blobGasUsed": "0xdac0",
      "from": "0x9bcf302cfcb64406b557342c2715e85ac62a4693",
      "to": "0x7c13d90950f542b297179e09f3a36eaa917a40c1",
      "contractAddress": null,
      "daFootprintGasScalar": "0x190",
      "l1BaseFeeScalar": "0x7d0",
      "l1BlobBaseFee": "0x1",
      "l1BlobBaseFeeScalar": "0xdbba0",
      "l1Fee": "0xab",
      "l1GasPrice": "0xa",
      "l1GasUsed": "0x8c9"
    },
    {
      "status": "0x1",
      "cumulativeGasUsed": "0xc780f",
      "logs": [
        {
          "address": "0x20e8307cfe2c5cf7e434b5cb2c92494fa4baf01c",
          "topics": [
            "0xddf252ad1be2c89b69c2b068fc378daa952ba7f163c4a11628f55a4df523b3ef",
            "0x0000000000000000000000000000000000000000000000000000000000000000",
            "0x0000000000000000000000009bcf302cfcb64406b557342c2715e85ac62a4693"
          ],
          "data": "0x00000000000000000000000000000000000000000000000000038d7ea4c68000",
          "blockHash": "0x5470d77c4fc9c7643994270cdb262bec82411ecb3e07dc35e40d6a355c7cc13e",
          "blockNumber": "0x2c40c4b",
          "blockTimestamp": "0x69b1b997",
          "transactionHash": "0xf3dfea1f38892c23e7a87fe1f3defaa0f30c951055499f703e2a296fdf3050d1",
          "transactionIndex": "0x5",
          "logIndex": "0x9",
          "removed": false
        }
      ],
      "logsBloom": "0x00000000000000000000000000000000000000800000000000000000000000000000000000000000000000000000000000000000000000000000000000000000000020000000002000000008000000000000000000000000000000000000000000000000020000000000000000000800000000000000000000000010000000000000000000000000000000000000000000000000000000000000000000000000000000000000000000000000000000000000000000000040000000000000000000000002000000000000000000000000000000000000000000000000000020000000000000001000000000000000000000000000000000000000000000000080",
      "type": "0x2",
      "transactionHash": "0xf3dfea1f38892c23e7a87fe1f3defaa0f30c951055499f703e2a296fdf3050d1",
      "transactionIndex": "0x5",
      "blockHash": "0x5470d77c4fc9c7643994270cdb262bec82411ecb3e07dc35e40d6a355c7cc13e",
      "blockNumber": "0x2c40c4b",
      "gasUsed": "0x85a8",
      "effectiveGasPrice": "0x7a121",
      "blobGasUsed": "0x9c40",
      "from": "0x9bcf302cfcb64406b557342c2715e85ac62a4693",
      "to": "0x20e8307cfe2c5cf7e434b5cb2c92494fa4baf01c",
      "contractAddress": null,
      "daFootprintGasScalar": "0x190",
      "l1BaseFeeScalar": "0x7d0",
      "l1BlobBaseFee": "0x1",
      "l1BlobBaseFeeScalar": "0xdbba0",
      "l1Fee": "0x7a",
      "l1GasPrice": "0xa",
      "l1GasUsed": "0x640"
    },
    {
      "status": "0x1",
      "cumulativeGasUsed": "0xf9234",
      "logs": [
        {
          "address": "0x7d1dea64e891dccb20f85bc379227238c8c1308b",
          "topics": [
            "0xddf252ad1be2c89b69c2b068fc378daa952ba7f163c4a11628f55a4df523b3ef",
            "0x0000000000000000000000000000000000000000000000000000000000000000",
            "0x0000000000000000000000009bcf302cfcb64406b557342c2715e85ac62a4693"
          ],
          "data": "0x0000000000000000000000000000000000000000033b2e3c9fd0803ce8000000",
          "blockHash": "0xef31ef871b8a460671f29238526a9131fe6c122b00bb72980976cf92d49fecc2",
          "blockNumber": "0x2c40c4e",
          "blockTimestamp": "0x69b1b99a",
          "transactionHash": "0x7755c8680235440d8ed6d0cd767e9dff7246b182817db486e24eb39cf4dc5094",
          "transactionIndex": "0x7",
          "logIndex": "0xd",
          "removed": false
        }
      ],
      "logsBloom": "0x00000000000000000000000000000000000000800000000000000000000000001000000000000000000000000000000000000000000000000000000000000000000000000000000000000008000000000000000000000000000000000000000000000000020000000000000000000800000000000000000000000010000000000000000000000000000000000000080000000000000000000000000000000000000000000000000000000000000000000000000000000000000000000000000000000002000000000000000000000000000000000000000000000002000020000000000000001000000000000000000000000000000000000000000000000080",
      "type": "0x2",
      "transactionHash": "0x7755c8680235440d8ed6d0cd767e9dff7246b182817db486e24eb39cf4dc5094",
      "transactionIndex": "0x7",
      "blockHash": "0xef31ef871b8a460671f29238526a9131fe6c122b00bb72980976cf92d49fecc2",
      "blockNumber": "0x2c40c4e",
      "gasUsed": "0x85cc",
      "effectiveGasPrice": "0x7a121",
      "blobGasUsed": "0x9c40",
      "from": "0x9bcf302cfcb64406b557342c2715e85ac62a4693",
      "to": "0x7d1dea64e891dccb20f85bc379227238c8c1308b",
      "contractAddress": null,
      "daFootprintGasScalar": "0x190",
      "l1BaseFeeScalar": "0x7d0",
      "l1BlobBaseFee": "0x1",
      "l1BlobBaseFeeScalar": "0xdbba0",
      "l1Fee": "0x7a",
      "l1GasPrice": "0xa",
      "l1GasUsed": "0x640"
    },
    {
      "status": "0x1",
      "cumulativeGasUsed": "0x2e293",
      "logs": [
        {
          "address": "0x20e8307cfe2c5cf7e434b5cb2c92494fa4baf01c",
          "topics": [
            "0x8c5be1e5ebec7d5bd14f71427d1e84f3dd0314c0f7b2291e5b200ac8c7c3b925",
            "0x0000000000000000000000009bcf302cfcb64406b557342c2715e85ac62a4693",
            "0x000000000000000000000000ba7c987537e1f7872bc4e7f856921cfe10389c20"
          ],
          "data": "0xffffffffffffffffffffffffffffffffffffffffffffffffffffffffffffffff",
          "blockHash": "0x12fed9fb8cb7181d92d34217a641ada56be29ecc5a2c962d379dfb5ee6dd8ac3",
          "blockNumber": "0x2c40c55",
          "blockTimestamp": "0x69b1b9a1",
          "transactionHash": "0xfb1f36d5e901e1840c6ee1d0414dbfe5e07f5aa5e25f3eae038228d35351f185",
          "transactionIndex": "0x3",
          "logIndex": "0x1",
          "removed": false
        }
      ],
      "logsBloom": "0x00000000000000000000000000000000000000800000000000000000000000000000000000000000000000000000000000000000000000000000000000200000000020000000002000000000000000000000000000000000000000000000000000000000000000000000000000004000000000000000000000000000000000000000000000000000000000000000000000000100000000000000000000000000020000000000000000000000000000000000800000000040000000000000000000000000000000000000000000000000000000000000000000000000000000000010000000001000000000000000000000000000000000000000000000000080",
      "type": "0x2",
      "transactionHash": "0xfb1f36d5e901e1840c6ee1d0414dbfe5e07f5aa5e25f3eae038228d35351f185",
      "transactionIndex": "0x3",
      "blockHash": "0x12fed9fb8cb7181d92d34217a641ada56be29ecc5a2c962d379dfb5ee6dd8ac3",
      "blockNumber": "0x2c40c55",
      "gasUsed": "0x689b",
      "effectiveGasPrice": "0x7a121",
      "blobGasUsed": "0x9c40",
      "from": "0x9bcf302cfcb64406b557342c2715e85ac62a4693",
      "to": "0x20e8307cfe2c5cf7e434b5cb2c92494fa4baf01c",
      "contractAddress": null,
      "daFootprintGasScalar": "0x190",
      "l1BaseFeeScalar": "0x7d0",
      "l1BlobBaseFee": "0x1",
      "l1BlobBaseFeeScalar": "0xdbba0",
      "l1Fee": "0x7a",
      "l1GasPrice": "0xa",
      "l1GasUsed": "0x640"
    },
    {
      "status": "0x1",
      "cumulativeGasUsed": "0xf0b8a",
      "logs": [
        {
          "address": "0x7d1dea64e891dccb20f85bc379227238c8c1308b",
          "topics": [
            "0x8c5be1e5ebec7d5bd14f71427d1e84f3dd0314c0f7b2291e5b200ac8c7c3b925",
            "0x0000000000000000000000009bcf302cfcb64406b557342c2715e85ac62a4693",
            "0x000000000000000000000000ba7c987537e1f7872bc4e7f856921cfe10389c20"
          ],
          "data": "0xffffffffffffffffffffffffffffffffffffffffffffffffffffffffffffffff",
          "blockHash": "0x08f005abe73397b317769d547e118bd1a4a83c8215ab4fa6ad67c0b4ece1a5e1",
          "blockNumber": "0x2c40c5a",
          "blockTimestamp": "0x69b1b9a6",
          "transactionHash": "0xbe67f7fc274b3bd0bb6b43b7f7c8e1b13c56ac642f2d73f21d379e304e45fd33",
          "transactionIndex": "0x7",
          "logIndex": "0xb",
          "removed": false
        }
      ],
      "logsBloom": "0x00000000000000000000000000000000000000800000000000000000000000001000000000000000000000000000000000000000000000000000000000200000000000000000000000000000000000000000000000000000000000000000000000000000000000000000000000004000000000000000000000000000000000000000000000000000000000000000080000000100000000000000000000000000020000000000000000000000000000000000800000000000000000000000000000000000000000000000000000000000000000000000000000000002000000000010000000001000000000000000000000000000000000000000000000000080",
      "type": "0x2",
      "transactionHash": "0xbe67f7fc274b3bd0bb6b43b7f7c8e1b13c56ac642f2d73f21d379e304e45fd33",
      "transactionIndex": "0x7",
      "blockHash": "0x08f005abe73397b317769d547e118bd1a4a83c8215ab4fa6ad67c0b4ece1a5e1",
      "blockNumber": "0x2c40c5a",
      "gasUsed": "0x689b",
      "effectiveGasPrice": "0x7a121",
      "blobGasUsed": "0x9c40",
      "from": "0x9bcf302cfcb64406b557342c2715e85ac62a4693",
      "to": "0x7d1dea64e891dccb20f85bc379227238c8c1308b",
      "contractAddress": null,
      "daFootprintGasScalar": "0x190",
      "l1BaseFeeScalar": "0x7d0",
      "l1BlobBaseFee": "0x1",
      "l1BlobBaseFeeScalar": "0xdbba0",
      "l1Fee": "0x7a",
      "l1GasPrice": "0xa",
      "l1GasUsed": "0x640"
    },
    {
      "status": "0x1",
      "cumulativeGasUsed": "0x70e7b",
      "logs": [
        {
          "address": "0x7c13d90950f542b297179e09f3a36eaa917a40c1",
          "topics": [
            "0xf208f4912782fd25c7f114ca3723a2d5dd6f3bcc3ac8db5af63baa85f711d5ec",
            "0x95c7854a55b159e9d9cccafea079519fcaca1094e74865f9801237a89904a8ad",
            "0x000000000000000000000000ba7c987537e1f7872bc4e7f856921cfe10389c20"
          ],
          "data": "0xfffffffffffffffffffffffffffffffffffffffffffffffffffffffffff2764c00000000000000000000000000000000000000000000000000000000000d89b400000000000000000000000000000000000000000000000000005af3107a40000000000000000000000000000000000000000000000000000000000000000000",
          "blockHash": "0x0000000000000000000000000000000000000000000000000000000000000000",
          "blockNumber": "0x2c40c64",
          "blockTimestamp": "0x69b1b9b0",
          "transactionHash": "0xf7c101177518862b70f489ab15c600b1801338bddfbb4c1c41159105dfbe18b2",
          "transactionIndex": "0x3",
          "logIndex": "0x1",
          "removed": false
        },
        {
          "address": "0x20e8307cfe2c5cf7e434b5cb2c92494fa4baf01c",
          "topics": [
            "0xddf252ad1be2c89b69c2b068fc378daa952ba7f163c4a11628f55a4df523b3ef",
            "0x0000000000000000000000009bcf302cfcb64406b557342c2715e85ac62a4693",
            "0x0000000000000000000000007c13d90950f542b297179e09f3a36eaa917a40c1"
          ],
          "data": "0x00000000000000000000000000000000000000000000000000005af3107a4000",
          "blockHash": "0x0000000000000000000000000000000000000000000000000000000000000000",
          "blockNumber": "0x2c40c64",
          "blockTimestamp": "0x69b1b9b0",
          "transactionHash": "0xf7c101177518862b70f489ab15c600b1801338bddfbb4c1c41159105dfbe18b2",
          "transactionIndex": "0x3",
          "logIndex": "0x2",
          "removed": false
        },
        {
          "address": "0x7d1dea64e891dccb20f85bc379227238c8c1308b",
          "topics": [
            "0xddf252ad1be2c89b69c2b068fc378daa952ba7f163c4a11628f55a4df523b3ef",
            "0x0000000000000000000000009bcf302cfcb64406b557342c2715e85ac62a4693",
            "0x0000000000000000000000007c13d90950f542b297179e09f3a36eaa917a40c1"
          ],
          "data": "0x00000000000000000000000000000000000000000000000000005af3107a4000",
          "blockHash": "0x0000000000000000000000000000000000000000000000000000000000000000",
          "blockNumber": "0x2c40c64",
          "blockTimestamp": "0x69b1b9b0",
          "transactionHash": "0xf7c101177518862b70f489ab15c600b1801338bddfbb4c1c41159105dfbe18b2",
          "transactionIndex": "0x3",
          "logIndex": "0x3",
          "removed": false
        }
      ],
      "logsBloom": "0x00000000000000000000000000000000000000800000000000000000000000001000000000000000000000000000000000004000008000000000000000000000000020000000002000000008000000000000000000000000000000000000000000000000000000000000000000004000000000000000000002000010000000000000000001000000000000000000080000000100000000000000000000000400000004000000000000000000000000000000800002000040000000000000000000000002000000000000000000000000000000000000000200000002000000040000000000001080000000000000000004000000000000000000000000000080",
      "type": "0x2",
      "transactionHash": "0xf7c101177518862b70f489ab15c600b1801338bddfbb4c1c41159105dfbe18b2",
      "transactionIndex": "0x3",
      "blockHash": "0x0000000000000000000000000000000000000000000000000000000000000000",
      "blockNumber": "0x2c40c64",
      "gasUsed": "0x49483",
      "effectiveGasPrice": "0x7a121",
      "blobGasUsed": "0x10040",
      "from": "0x9bcf302cfcb64406b557342c2715e85ac62a4693",
      "to": "0xba7c987537e1f7872bc4e7f856921cfe10389c20",
      "contractAddress": null,
      "daFootprintGasScalar": "0x190",
      "l1BaseFeeScalar": "0x7d0",
      "l1BlobBaseFee": "0x1",
      "l1BlobBaseFeeScalar": "0xdbba0",
      "l1Fee": "0xa9",
      "l1GasPrice": "0xa",
      "l1GasUsed": "0xa40"
    },
    {
      "status": "0x1",
      "cumulativeGasUsed": "0xc4949",
      "logs": [
        {
          "address": "0xe8cf0ace4a7f5b940c3cab327117045c03b79ac3",
          "topics": [
            "0xc648df2baae81269f950f9d33f5e7ff573acedbf883b40670f847d4f0af21992",
            "0x95c7854a55b159e9d9cccafea079519fcaca1094e74865f9801237a89904a8ad"
          ],
          "data": "0x0000000000000000000000000000000000000000000000008ac7230489e80000000000000000000000000000000000000000000000000000000000000000012c",
          "blockHash": "0x8364c4443838e238dcfe8c0229fa1feed4e3628d417c8b77bf96a3f59d237908",
          "blockNumber": "0x2c40c6b",
          "blockTimestamp": "0x69b1b9b7",
          "transactionHash": "0xb47df2fdb3f98f9532a57c322d465cd456dd9c4df3af40f1083739c3f329cb7c",
          "transactionIndex": "0x8",
          "logIndex": "0x9",
          "removed": false
        }
      ],
      "logsBloom": "0x00000000000000000000000000000000010000000000000000000000000000000000010000000000000000000000000000000000000000000000000000000000000000000000000000000000000000000000000000000000000000102000001000000000000000000000000000000000000000000000000002000000000000000000000000000000000000000100000000000000000000000000000000000400000000000000000000000000000000000000000000000000000000000000000000000000000000000000000000000000000000000000000200000000000000000000000000000000000000000000000000000000000000000000000000000000",
      "type": "0x2",
      "transactionHash": "0xb47df2fdb3f98f9532a57c322d465cd456dd9c4df3af40f1083739c3f329cb7c",
      "transactionIndex": "0x8",
      "blockHash": "0x8364c4443838e238dcfe8c0229fa1feed4e3628d417c8b77bf96a3f59d237908",
      "blockNumber": "0x2c40c6b",
      "gasUsed": "0x1c1cc",
      "effectiveGasPrice": "0x7a121",
      "blobGasUsed": "0xb090",
      "from": "0x9bcf302cfcb64406b557342c2715e85ac62a4693",
      "to": "0xe8cf0ace4a7f5b940c3cab327117045c03b79ac3",
      "contractAddress": null,
      "daFootprintGasScalar": "0x190",
      "l1BaseFeeScalar": "0x7d0",
      "l1BlobBaseFee": "0x1",
      "l1BlobBaseFeeScalar": "0xdbba0",
      "l1Fee": "0x8a",
      "l1GasPrice": "0xa",
      "l1GasUsed": "0x71d"
    }
  ],
  "libraries": [],
  "pending": [],
  "returns": {},
  "timestamp": 1773255096,
  "chain": 1301,
  "commit": "3b87dbf"
}